:0400000056EF01F0C6
:06000800518227EF43F0D6
:100018005180D8CF0CF0E8CF0DF0E0CF0EF00E01F4
:1000280033AB19EF00F01BEF00F005EF01F08F96EE
:10003800339BE30ED46EB00ED36E442A365037107D
:10004800D8B429EF00F02BEF00F047EF00F08EAEA8
:1000580030EF00F032EF00F047EF00F03606D8A09E
:10006800370600016851D8B43CEF00F03EEF00F0CD
:1000780046EF00F0030E686144EF00F046EF00F031
:1000880047EF00F0682B4304D8A44DEF00F04FEF82
:1000980000F060EF00F000016C514418D8A457EF4D
:1000A80000F059EF00F060EF00F0000E446E8F8E04
:1000B800020E436E05EF01F0020E4318D8A467EF55
:1000C80000F069EF00F079EF00F03A504418D8A436
:1000D80070EF00F072EF00F079EF00F0000E446E60
:1000E8008F9E030E436E05EF01F0030E4318D8A44C
:1000F80080EF00F082EF00F093EF00F000016B5109
:100108004418D8A48AEF00F08CEF00F093EF00F0C9
:10011800000E446E8D84040E436E05EF01F0040E4C
:100128004318D8A49AEF00F09CEF00F0ACEF00F071
:100138003A504418D8A4A3EF00F0A5EF00F0ACEFB4
:1001480000F0000E446E8D94050E436E05EF01F02D
:10015800050E4318D8A4B3EF00F0B5EF00F0C6EFD2
:1001680000F000016B514418D8A4BDEF00F0BFEFB8
:1001780000F0C6EF00F0000E446E8D86060E436E4A
:1001880005EF01F0060E4318D8A4CDEF00F0CFEF2D
:1001980000F0DFEF00F03A504418D8A4D6EF00F092
:1001A800D8EF00F0DFEF00F0000E446E8D96070EDA
:1001B800436E05EF01F0070E4318D8A4E6EF00F0F0
:1001C800E8EF00F0F8EF00F0000169514418D8A4F6
:1001D800F0EF00F0F2EF00F0F8EF00F0000E446EE0
:1001E800010E436E05EF01F0630E4318D8A4FFEF2C
:1001F80000F001EF01F005EF01F0000E446E05EF8D
:1002080001F00E0138A10BEF01F00DEF01F012EF34
:1002180001F08F9600016E2B0E01389138A517EF6B
:1002280001F019EF01F04EEF01F08F963895F00EBE
:10023800C86EDC0EC76E00016D2B6D51735DD8B0B2
:1002480028EF01F02AEF01F043EF01F04D50D8A458
:1002580030EF01F032EF01F043EF01F0010E4D6E87
:10026800000E6D6FC9908351D8B43DEF01F03FEF98
:1002780001F04EEF01F0010E4E6E4EEF01F04D50C1
:10028800D8B449EF01F04BEF01F04EEF01F0000E4A
:100298006D6FC9900EC0E0FF0DC0E8FF0CC0D8FF1D
:1002A80051901000C3EF4BF0000E0601E06F000EF6
:1002B800E16F000EE46F000EE36F1E0E0001736F16
:1002C800300E84656AEF01F06CEF01F02AEF12F04E
:1002D8003A0E846172EF01F074EF01F02AEF12F028
:1002E800000E4D6E000E486EC980010E0F6E030E93
:1002F800C4EC5FF0A8EF01F0B90E176EFF0E186E90
:10030800A8EC5DF0840E176E000E186E010E196EC3
:10031800C9EC5DF0DC0E176EFE0E186EA8EC5DF0F1
:10032800010E106EF40E0F6E28EC58F04D50D8A444
:10033800A0EF01F0A2EF01F0A8EF01F0130E106E8C
:10034800880E0F6E28EC58F04D50D8B4AEEF01F07F
:10035800B0EF01F080EF01F0000E0F6E0F0EC4EC4D
:100368005FF00E013885150E0F6E070E106EF30E36
:10037800116E010E126E000E146E030E136EECEC6D
:1003880053F00F501010D8A4CCEF01F0CEEF01F0CD
:100398001BEF12F0840E0F6E000E106E180E116E09
:1003A800070E126E000E146E0A0E136EB0EC58F0A3
:1003B800C2EC5EF0000E0F6E080E106E3F0E116E4E
:1003C800070E126E05EC57F0000E0F6E080E106E39
:1003D8000BEC5CF00009D8B4F4EF01F0F6EF01F093
:1003E800FCEF01F0DAEC5EF037EC3AF00DEF02F0DA
:1003F8008FEC5EF0000E0F6E050EC4EC5FF0070E7A
:10040800106ED00E0F6E28EC58F033EF12F033EF69
:1004180012F0980E0F6E000E106E840E116E000E04
:10042800126E000E146E0A0E136EECEC53F00F50A1
:100438001010D8A422EF02F024EF02F00AEF11F016
:10044800840E0F6E000E106EF40E116E020E126EF8
:10045800000E146E0A0E136EB0EC58F0000E0F6EFC
:10046800050E106EEE0E116E010E126E000E146E59
:10047800040E136EECEC53F00F501010D8A447EF95
:1004880002F049EF02F059EF02F0000E486EC70E75
:10049800276EFD0E286E980E296E000E2A6E000E2D
:1004A8002B6E34EC12F033EF12F0000E0F6E050EC7
:1004B800106EFB0E116E000E126E000E146E020E00
:1004C800136EECEC53F00F501010D8A46EEF02F03E
:1004D80070EF02F0B7EF02F0030E0F6E050E106E0C
:1004E800AA0E116E000E126E000E146E060E136E1A
:1004F800ECEC53F00F501010D8A485EF02F087EF02
:1005080002F0A7EF02F0AA0E0F6E000E106E0A0E90
:10051800116E050E126E000E146E060E136EB0EC00
:1005280058F084EC5AF0000E486E650E276EFC0EEB
:10053800286E980E296E000E2A6E000E2B6E34EC73
:1005480012F033EF12F0000E486E5D0E276EFD0EAE
:10055800286E980E296E000E2A6E000E2B6E34EC53
:1005680012F033EF12F0000E0F6E050E106EFB0E38
:10057800116E010E126E000E146E030E136EECEC6B
:1005880053F00F501010D8A4CCEF02F0CEEF02F0C9
:1005980066EF05F0000E0601E46F000EE36F030E30
:1005A80033EC40F0476E010E0601E26F060E486E0E
:1005B800000E4824D96EDA6A050EDA22DF500AECFA
:1005C8005FF00009D8B4EBEF02F0EDEF02F038EF7E
:1005D80004F0010E4824D96EDA6A050EDA22200EDC
:1005E800DE18D8A4FAEF02F0FCEF02F01DEF03F0DA
:1005F800000E4824D96EDA6A050EDA22000E482465
:10060800E16EE26A050EE222E750D00FDF6E000EBF
:100618004824D96EDA6A050EDA22DF500401F66F33
:10062800F6510601E325E36F000EE421E46F6DEF58
:1006380004F0000E4824D96EDA6A050EDA22000E9C
:100648004824E16EE26A050EE222E750D00FDF6E21
:10065800000E4824D96EDA6A050EDA22DF500A0D38
:10066800000E4824D96EDA6A050EDA22F3CFDFFFCE
:10067800E3C60FF0E4C610F0000E126E0A0E116EFB
:1006880034EC5FF00FC0E3F610C0E4F60BEF03F0B4
:100698004750160D680EF324D96E090EF420DA6E51
:1006A800E3C6DFFF000E0601E46F000EE36F6BEF99
:1006B80004F04750160D690EF324D96E090EF42084
:1006C800DA6EE3C6DFFF56EF03F04750160D6A0EE9
:1006D800F324D96E090EF420DA6EE3C6DFFF56EF75
:1006E80003F04750160D6B0EF324D96E090EF42053
:1006F800DA6EE3C6DFFF56EF03F04750160D640EBF
:10070800F324D96E090EF420DA6EE3C6DEFFE4C6E0
:10071800DDFF56EF03F04750160D660EF324D96E31
:10072800090EF420DA6EE3C6DEFFE4C6DDFF56EFFD
:1007380003F04750160D720EF324D96E090EF420FB
:10074800DA6EE3C6DFFF56EF03F04750160D740E5E
:10075800F324D96E090EF420DA6EE3C6DFFF4750A2
:10076800160D750EF324D96E090EF420DA6EE3C661
:10077800DFFF56EF03F00601E351A6EC33F0000E5D
:100788000601E46F000EE36F4750160D6C0EF3245C
:10079800D96E090EF420DA6E38C0DFFF4750160D07
:1007A8006D0EF324D96E090EF420DA6E3BC0DFFF1C
:1007B8004750160D6E0EF324D96E090EF420DA6E2A
:1007C8003CC0DFFF4750160D760EF324D96E090E94
:1007D800F420DA6E000EDF6E4750160D770EF32404
:1007E800D96E090EF420DA6E010EDF6E4750160D31
:1007F8006F0EF324D96E090EF420DA6E000EDF6E48
:100808004750160D700EF324D96E090EF420DA6ED7
:10081800000EDF6E4750160D710EF324D96E090EC7
:10082800F420DA6E000EDF6E4750160D780EF324B2
:10083800D96E090EF420DA6E000EDF6E4750160DE1
:10084800730EF324D96E090EF420DA6E000EDF6EF3
:100858004750160D790EF324D96E090EF420DA6E7E
:10086800000EDF6E6BEF04F00601E2510401F66F33
:10087800F76BF751000AD8B444EF04F06BEF04F0BB
:10088800F651010AD8B44CEF03F0030AD8B45DEF6F
:1008980003F0010AD8B469EF03F0070AD8B475EF7A
:1008A80003F0010AD8B481EF03F0030AD8B48FEF3C
:1008B80003F0010AD8B49DEF03F00F0AD8B4A9EFEA
:1008C80003F0010AD8B4BFEF03F06BEF04F00601A0
:1008D800E22B482A090EE26574EF04F076EF04F083
:1008E800DCEF02F0000E106E640E0F6E28EC58F06C
:1008F8004750020D490EF324F66EF20EF420F76EFF
:100908000900F5CF17F00A00F5CF18F04750160D7B
:10091800640EF324196E090EF4201A6EA4EC46F046
:10092800000E106E640E0F6E28EC58F04750020D42
:10093800490EF324F66EF20EF420F76E0900F5CF97
:1009480017F00A00F5CF18F04750160D640EF3247F
:10095800196E090EF4201A6E97EC57F0000E106EFF
:10096800640E0F6E28EC58F04750020D490EF32420
:10097800F66EF20EF420F76E0900F5CF17F00A00B4
:10098800F5CF18F04750160D640EF324196E090EB2
:10099800F4201A6E21EC5EF0000E106E640E0F6EDD
:1009A80028EC58F04750020D490EF324F66EF20E6B
:1009B800F420F76E0900F5CF17F00A00F5CF18F00C
:1009C8004750160D640EF324196E090EF4201A6EA2
:1009D80004EC5EF0000E106E640E0F6E28EC58F0FA
:1009E8004750020D490EF324F66EF20EF420F76E0E
:1009F8000900F5CF17F00A00F5CF18F04750160D8B
:100A0800640EF324196E090EF4201A6EE7EC5DF0FB
:100A1800000E106E640E0F6E28EC58F04750020D51
:100A2800490EF324F66EF20EF420F76E0900F5CFA6
:100A380017F00A00F5CF18F04750160D640EF3248E
:100A4800196E090EF4201A6EFDEC4EF0000E106EB1
:100A5800640E0F6E28EC58F0090E476036EF05F06B
:100A680038EF05F040EF05F0300E0001846F475075
:100A7800310F856F56EF05F0080E476446EF05F015
:100A880048EF05F056EF05F00C0E47604EEF05F005
:100A980050EF05F056EF05F0310E0001846F475016
:100AA800270F856F000E486EF10E276EFA0E286E1E
:100AB800980E296E000E2A6E020E2B6E34EC12F080
:100AC80033EF12F0000E0F6E050E106EE90E116E68
:100AD800010E126E000E146E040E136EECEC53F041
:100AE8000F501010D8A47BEF05F07DEF05F030EF24
:100AF80006F0040E33EC40F0476E4750160D760EA4
:100B0800F324D96E090EF420DA6EDE04D8A48FEF30
:100B180005F091EF05F094EF05F0010E00017D6FEF
:100B28004750160D770EF324D96E090EF420DA6EAD
:100B3800000EDF6E4750160D780EF324D96E090E9D
:100B4800F420DA6EDE04D8A4ACEF05F0AEEF05F0C1
:100B5800DCEF05F04750160D780EF324D96E090E18
:100B6800F420DA6E000EDF6E000E106E640E0F6E4B
:100B780028EC58F04750020D490EF324F66EF20E99
:100B8800F420F76E0900F5CF17F00A00F5CF18F03A
:100B98004750160D640EF324196E090EF4201A6ED0
:100BA800FDEC4EF0000E106E640E0F6E28EC58F03F
:100BB8004750020D490EF324F66EF20EF420F76E3C
:100BC8000900F5CF17F00A00F5CF18F04750160DB9
:100BD800640EF324196E090EF4201A6EE7EC5DF02A
:100BE800000E106E640E0F6E28EC58F0090E476068
:100BF80000EF06F002EF06F00AEF06F0300E0001F3
:100C0800846F4750310F856F20EF06F0080E476458
:100C180010EF06F012EF06F020EF06F00C0E47601A
:100C280018EF06F01AEF06F020EF06F0310E00017B
:100C3800846F4750270F856F000E486E4A0E276E47
:100C4800F90E286E980E296E000E2A6E020E2B6E73
:100C580034EC12F033EF12F0000E0F6E050E106E2A
:100C6800ED0E116E020E126E000E146E060E136E4D
:100C7800ECEC53F00F501010D8A445EF06F047EFF6
:100C880006F05CEF08F0000E0601E46F000EE36F5B
:100C9800000EE26F060E33EC40F0476E4750160D1B
:100CA800770EF324D96E090EF420DA6EDF50D8A43B
:100CB80060EF06F062EF06F098EF06F0090E476065
:100CC80068EF06F06AEF06F072EF06F0300E0001EA
:100CD800846F4750310F856F88EF06F0080E476420
:100CE80078EF06F07AEF06F088EF06F00C0E476012
:100CF80080EF06F082EF06F088EF06F0310E000173
:100D0800846F4750270F856F000E486E630E276E5D
:100D1800F60E286E980E296E000E2A6E020E2B6EA5
:100D280034EC12F033EF12F0090E486E000E48242E
:100D3800D96EDA6A050EDA22DF500AEC5FF0000994
:100D4800D8B4A9EF06F0ABEF06F00AEF07F0010EF2
:100D58004824D96EDA6A050EDA22200EDE18D8A4E5
:100D6800B8EF06F0BAEF06F0DBEF06F0000E482405
:100D7800D96EDA6A050EDA22000E4824E16EE26ABC
:100D8800050EE222E750D00FDF6E000E4824D96E20
:100D9800DA6A050EDA22DF500401F66FF651060111
:100DA800E325E36F000EE421E46FE8EF07F0000E9F
:100DB8004824D96EDA6A050EDA22000E4824E16E5C
:100DC800E26A050EE222E750D00FDF6E000E4824DB
:100DD800D96EDA6A050EDA22DF500A0D000E4824B1
:100DE800D96EDA6A050EDA22F3CFDFFFE3C60FF019
:100DF800E4C610F0000E126E0A0E116E34EC5FF0AD
:100E08000FC0E3F610C0E4F6C9EF06F00601E22BC6
:100E1800CEEF07F04750160D6F0EF324D96E090E6A
:100E2800F420DA6EE3C6DFFF000E0601E46F000E61
:100E3800E36FE8EF07F04750160D700EF324D96EF4
:100E4800090EF420DA6EE3C6DFFF18EF07F047500B
:100E5800160D710EF324D96E090EF420DA6EE3C66E
:100E6800DFFF4750160D730EF324D96E090EF420D8
:100E7800DA6E000EDF6E4750160D790EF324D96E28
:100E8800090EF420DA6E000EDF6E000E0601E46F24
:100E9800000EE36F4750160D680EF324D96E090E45
:100EA800F420DA6EDF500401F66FF76B4750160D29
:100EB8006F0EF324D96E090EF420DA6EDF50F86F46
:100EC800F96B4750160D700EF324D96E090EF420F5
:100ED800DA6EDF50FA6FFA51F827000EF923F6514F
:100EE800F85DF951800AFB6FF751800AFB59D8A0C9
:100EF80080EF07F082EF07F0C2EF07F04750160DBA
:100F0800780EF324D96E090EF420DA6E000EDF6E27
:100F1800090E476092EF07F094EF07F09CEF07F097
:100F2800300E0001846F4750310F856FB2EF07F024
:100F3800080E4764A2EF07F0A4EF07F0B2EF07F03E
:100F48000C0E4760AAEF07F0ACEF07F0B2EF07F01E
:100F5800310E0001846F4750270F856F000E486ED1
:100F68007C0E276EF80E286E980E296E000E2A6EDB
:100F7800020E2B6E34EC12F0E8EF07F04750160D16
:100F8800780EF324D96E090EF420DA6E010EDF6EA6
:100F9800E8EF07F0E2510401F66FF76BF751000A2A
:100FA800D8B4D9EF07F0E8EF07F0F651010AD8B442
:100FB8000EEF07F0030AD8B41FEF07F0010AD8B400
:100FC8002BEF07F0E8EF07F0482A020E0601E2656A
:100FD800F0EF07F0F2EF07F09AEF06F04750160D22
:100FE800780EF324D96E090EF420DA6EDF50D8B4E7
:100FF80000EF08F002EF08F033EF12F0000E106E69
:10100800640E0F6E28EC58F04750020D490EF32479
:10101800F66EF20EF420F76E0900F5CF17F00A000D
:10102800F5CF18F04750160D640EF324196E090E0B
:10103800F4201A6EFDEC4EF0000E106E640E0F6E6A
:1010480028EC58F0090E47602CEF08F02EEF08F056
:1010580036EF08F0300E0001846F4750310F856F6E
:101068004CEF08F0080E47643CEF08F03EEF08F03C
:101078004CEF08F00C0E476044EF08F046EF08F01C
:101088004CEF08F0310E0001846F4750270F856F31
:10109800000E486E9F0E276EFB0E286E980E296E66
:1010A800000E2A6E020E2B6E34EC12F033EF12F0A3
:1010B800000E0F6E050E106ED70E116E020E126E18
:1010C800000E146E070E136EECEC53F00F50101058
:1010D800D8A471EF08F073EF08F00FEF09F0070ECE
:1010E80033EC40F0476E4750160D760EF324D96E58
:1010F800090EF420DA6EDE04D8A485EF08F087EF35
:1011080008F09BEF08F04750160D730EF324D96EC4
:10111800090EF420DA6E030EDE18D8B496EF08F044
:1011280098EF08F09BEF08F0010E00017D6F475023
:10113800160D780EF324D96E090EF420DA6EDE044B
:10114800D8A4A9EF08F0ABEF08F00BEF02F0475076
:10115800160D780EF324D96E090EF420DA6E000EFF
:10116800DF6E000E106E640E0F6E28EC58F04750BC
:10117800020D490EF324F66EF20EF420F76E090004
:10118800F5CF17F00A00F5CF18F04750160D640E8A
:10119800F324196E090EF4201A6EFDEC4EF0000EC1
:1011A800106E640E0F6E28EC58F0090E4760DFEFE2
:1011B80008F0E1EF08F0E9EF08F0300E0001846F65
:1011C8004750310F856FFFEF08F0080E4764EFEFC7
:1011D80008F0F1EF08F0FFEF08F00C0E4760F7EFAA
:1011E80008F0F9EF08F0FFEF08F0310E0001846F06
:1011F8004750270F856F000E486E380E276EFB0E7E
:10120800286E980E296E000E2A6E020E2B6E34EC94
:1012180012F033EF12F0000E0F6E050E106EE60E90
:10122800116E020E126E000E146E060E136EECECAA
:1012380053F00F501010D8A424EF09F026EF09F04E
:101248000EEF0AF0000E0601E46F000EE36F000EC9
:10125800E26F060E486E000E4824D96EDA6A050E53
:10126800DA22DF500AEC5FF00009D8B43EEF09F04B
:1012780040EF09F09FEF09F0010E4824D96EDA6AB1
:10128800050EDA22200EDE18D8A44DEF09F04FEF34
:1012980009F070EF09F0000E4824D96EDA6A050EDD
:1012A800DA22000E4824E16EE26A050EE222E750D7
:1012B800D00FDF6E000E4824D96EDA6A050EDA22E6
:1012C800DF500401F66FF6510601E325E36F000EC7
:1012D800E421E46FE6EF09F0000E4824D96EDA6ADB
:1012E800050EDA22000E4824E16EE26A050EE222BB
:1012F800E750D00FDF6E000E4824D96EDA6A050E6B
:10130800DA22DF500A0D000E4824D96EDA6A050E7B
:10131800DA22F3CFDFFFE3C60FF0E4C610F0000EC9
:10132800126E0A0E116E34EC5FF00FC0E3F610C0B7
:10133800E4F65EEF09F00601E22BC4EF09F0E3C61C
:101348006CF0000E0601E46F000EE36FE6EF09F0A3
:10135800E3C66BF0A5EF09F0E3C66AF0A5EF09F064
:10136800E3C63AF0A5EF09F0E3C669F0000E0601FE
:10137800E46F000EE36F010E0001776FE6EF09F0EE
:10138800E2510401F66FF76BF751000AD8B4CFEFBA
:1013980009F0E6EF09F0F651010AD8B4A3EF09F015
:1013A800030AD8B4ACEF09F0010AD8B4B0EF09F0D9
:1013B800070AD8B4B4EF09F0010AD8B4B8EF09F0B5
:1013C800E6EF09F0482A040E0601E265EEEF09F09F
:1013D800F0EF09F02FEF09F0000E106E640E0F6E9B
:1013E80028EC58F060EC4EF0000E106E640E0F6E94
:1013F80028EC58F0000E486EF70E276EFC0E286E8B
:10140800980E296E000E2A6E000E2B6E34EC12F028
:1014180033EF12F0000E0F6E050E106ECF0E116E28
:10142800020E126E000E146E070E136EECEC53F0E3
:101438000F501010D8A423EF0AF025EF0AF046EF5A
:101448000AF0000E0001776F000E106E640E0F6E2A
:1014580028EC58F060EC4EF0000E106E640E0F6E23
:1014680028EC58F0000E486EA40E276EFC0E286E6D
:10147800980E296E000E2A6E000E2B6E34EC12F0B8
:1014880033EF12F0000E0F6E050E106ED90E116EAE
:10149800010E126E000E146E050E136EECEC53F076
:1014A8000F501010D8A45BEF0AF05DEF0AF086EF3A
:1014B8000AF000017751D8B464EF0AF066EF0AF039
:1014C80076EF0AF0000E486EDC0E276EFC0E286ED2
:1014D800980E296E000E2A6E080E2B6E34EC12F050
:1014E80033EF12F0000E486E450E276EFC0E286E84
:1014F800980E296E000E2A6E000E2B6E34EC12F038
:1015080033EF12F0000E0F6E050E106EDF0E116E27
:10151800010E126E000E146E040E136EECEC53F0F6
:101528000F501010D8A49BEF0AF09DEF0AF07CEF43
:101538000BF0000E0601E46F000EE36F000EE26F81
:10154800050E486E000E4824D96EDA6A050EDA22B6
:10155800DF500AEC5FF00009D8B4B5EF0AF0B7EF36
:101568000AF046EF0BF0000E4824D96EDA6A050E31
:10157800DA22000E4824E16EE26A050EE222E75004
:10158800D00FDF6E000E4824D96EDA6A050EDA2213
:10159800DF500401F66FF6510601E36FE46BE3C612
:1015A8000FF0E4C610F0000E126E0A0E116E34EC45
:1015B8005FF00FC0E3F610C0E4F6010E4824D96EC0
:1015C800DA6A050EDA22010E4824E16EE26A050E97
:1015D800E222E750D00FDF6E010E4824D96EDA6A96
:1015E800050EDA22DF500401F66FF6510601E325F5
:1015F800E36F000EE421E46FE22B20EF0BF0E3C66B
:1016080040F0000E0601E46F000EE36F56EF0BF09A
:10161800E3C641F005EF0BF0E3C642F005EF0BF02F
:10162800E3C63FF005EF0BF0E3C63EF005EF0BF025
:10163800E3C63DF005EF0BF0E2510401F66FF76BDE
:10164800F751000AD8B42BEF0BF056EF0BF0F65118
:10165800010AD8B403EF0BF0030AD8B40CEF0BF06F
:10166800010AD8B410EF0BF0070AD8B414EF0BF046
:10167800010AD8B418EF0BF0030AD8B41CEF0BF02A
:1016880056EF0BF0000E486EC10E276EFC0E286E4A
:10169800980E296E000E2A6E000E2B6E34EC12F096
:1016A80033EF12F0030E4826050E0601E2655FEFE0
:1016B8000BF061EF0BF0A6EF0AF0060EE219D8A4C2
:1016C80068EF0BF06AEF0BF06CEF0BF0E0EC57F003
:1016D800000E486E060E276EFA0E286E980E296EBA
:1016E800000E2A6E000E2B6E34EC12F033EF12F05F
:1016F800000E0F6E050E106EE40E116E010E126EC6
:10170800000E146E040E136EECEC53F00F50101014
:10171800D8A491EF0BF093EF0BF04BEF0CF071ECBA
:1017280055F040C00FF0106A000E126E0A0E116ECE
:10173800B7EC54F00F50300F0001846F40C021F017
:10174800226A000E246E0A0E236E19EC55F0215001
:10175800300F0001856F2F0E866F41C00FF0106AA1
:10176800000E126E0A0E116EB7EC54F00F50300FC7
:101778000001876F41C021F0226A000E246E0A0E14
:10178800236E19EC55F02150300F0001886F2F0E91
:10179800896F42C00FF0106A000E126E0A0E116EA9
:1017A800B7EC54F00F50300F00018A6F42C021F09F
:1017B800226A000E246E0A0E236E19EC55F0215091
:1017C800300F00018B6F200E8C6F3FC00FF0106A36
:1017D800000E126E0A0E116EB7EC54F00F50300F57
:1017E80000018D6F3FC021F0226A000E246E0A0EA0
:1017F800236E19EC55F02150300F00018E6F3A0E10
:101808008F6F3EC00FF0106A000E126E0A0E116E36
:10181800B7EC54F00F50300F0001906F3EC021F02C
:10182800226A000E246E0A0E236E19EC55F0215020
:10183800300F0001916F3A0E926F3DC00FF0106AA1
:10184800000E126E0A0E116EB7EC54F00F50300FE6
:101858000001936F3DC021F0226A000E246E0A0E2B
:10186800236E19EC55F02150300F0001946F000ED3
:10187800486EE70E276EFD0E286E980E296E000E34
:101888002A6E030E2B6E34EC12F033EF12F0000EBA
:101898000F6E050E106EC70E116E020E126E000E40
:1018A800146E070E136EECEC53F00F501010D8A402
:1018B80060EF0CF062EF0CF0BAEF0CF0070E33ECAF
:1018C80040F0476E090E47606CEF0CF06EEF0CF0BD
:1018D80076EF0CF0300E0001846F4750310F856FA2
:1018E8008CEF0CF0080E47647CEF0CF07EEF0CF0E8
:1018F8008CEF0CF00C0E476084EF0CF086EF0CF0C8
:101908008CEF0CF0310E0001846F4750270F856F64
:10191800000E486E4750160D770EF324D96E090E47
:10192800F420DA6EDF50D8B49CEF0CF09EEF0CF088
:10193800ACEF0CF0F60E276EFD0E286E980E296E91
:10194800000E2A6E070E2B6E34EC12F033EF12F0F5
:10195800800E276EFA0E286E980E296E000E2A6EDB
:10196800020E2B6E34EC12F033EF12F0000E0F6EF5
:10197800050E106EF80E116E000E126E000E146E2B
:10198800020E136EECEC53F00F501010D8A4CFEFEA
:101998000CF0D1EF0CF0B4EF0DF08EAED6EF0CF0EA
:1019A800D8EF0CF0E8EF0CF0000E486E190E276E19
:1019B800F90E286E980E296E000E2A6E000E2B6EF8
:1019C80034EC12F033EF12F0000E0601E46F000E53
:1019D800E36F000EE26F010EE26F030E486E000E19
:1019E8004824D96EDA6A050EDA22DF500AEC5FF075
:1019F8000009D8B402EF0DF004EF0DF074EF0DF00C
:101A0800010E4824D96EDA6A050EDA22200EDE1895
:101A1800D8A411EF0DF013EF0DF034EF0DF0000E18
:101A28004824D96EDA6A050EDA22000E4824E16EDF
:101A3800E26A050EE222E750D00FDF6E000E48245E
:101A4800D96EDA6A050EDA22DF500401F66FF65114
:101A58000601E325E36F000EE421E46F8DEF0DF03E
:101A6800000E4824D96EDA6A050EDA22000E4824E0
:101A7800E16EE26A050EE222E750D00FDF6E000E3B
:101A88004824D96EDA6A050EDA22DF500A0D000EF4
:101A98004824D96EDA6A050EDA22F3CFDFFFE3C6EF
:101AA8000FF0E4C610F0000E126E0A0E116E34EC40
:101AB8005FF00FC0E3F610C0E4F622EF0DF0E3C6C6
:101AC80066F0E4C667F0000E0601E46F000EE36FEF
:101AD8008BEF0DF0E3C6B5F0E4C6B6F067EF0DF096
:101AE8000601E2510401F66FF76BF751000AD8B40A
:101AF80080EF0DF08BEF0DF0F651010AD8B463EFCB
:101B08000DF0030AD8B46EEF0DF08BEF0DF006015F
:101B1800E22B482A020EE26594EF0DF096EF0DF0E5
:101B2800F3EF0CF0000E106E640E0F6E28EC58F0F8
:101B38000DEC53F0000E106E640E0F6E28EC58F08A
:101B4800000E486E150E276EFB0E286E980E296E35
:101B5800000E2A6E000E2B6E34EC12F033EF12F0EA
:101B6800000E0F6E050E106ED30E116E010E126E62
:101B7800000E146E050E136EECEC53F00F5010109F
:101B8800D8A4C9EF0DF0CBEF0DF0DBEF0DF0000E90
:101B9800486EA90E276EF90E286E980E296E000E53
:101BA8002A6E050E2B6E34EC12F033EF12F0000E95
:101BB8000F6E050E106EBF0E116E020E126E000E25
:101BC800146E070E136EECEC53F00F501010D8A4DF
:101BD800F0EF0DF0F2EF0DF04DEF0EF0070E33ECD5
:101BE80040F0476E000E106E640E0F6E28EC58F031
:101BF80047509BEC2BF0090E476005EF0EF007EFFE
:101C08000EF00FEF0EF0300E0001846F4750310FC9
:101C1800856F25EF0EF0080E476415EF0EF017EFED
:101C28000EF025EF0EF00C0E47601DEF0EF01FEFC3
:101C38000EF025EF0EF0310E0001846F4750270F8C
:101C4800856F4E50D8B42BEF0EF02DEF0EF03DEF10
:101C58000EF0000E4E6E580E276EFA0E286E980E75
:101C6800296E000E2A6E020E2B6E34EC12F033EF42
:101C780012F0000E486ED80E276EF90E286E980ED8
:101C8800296E000E2A6E060E2B6E34EC12F033EF1E
:101C980012F0000E0F6E050E106EF70E116E010E8B
:101CA800126E000E146E030E136EECEC53F00F5010
:101CB8001010D8A462EF0EF064EF0EF0B8EF0EF03B
:101CC800030E33EC40F0476E000E106E640E0F6E7C
:101CD80028EC58F08EAE73EF0EF075EF0EF077EF3C
:101CE8000EF0D8EF0CF0090E47607DEF0EF07FEF95
:101CF8000EF087EF0EF0300E0001846F4750310F61
:101D0800856F9DEF0EF0080E47648DEF0EF08FEF94
:101D18000EF09DEF0EF00C0E476095EF0EF097EF6A
:101D28000EF09DEF0EF0310E0001846F4750270F23
:101D3800856F130E106E880E0F6E28EC58F047C092
:101D48001CF0010E10EC38F0030E106EE80E0F6E4A
:101D580028EC58F00DEC53F0030E106EE80E0F6EE1
:101D680028EC58F0CBEF0DF0000E0F6E050E106E3C
:101D7800DF0E116E020E126E000E146E060E136E3A
:101D8800ECEC53F00F501010D8A4CDEF0EF0CFEFBD
:101D98000EF00BEF02F0000E0601E46F000EE36F89
:101DA800000EE26F070E486E000E4824D96EDA6AFC
:101DB800050EDA22DF500AEC5FF00009D8B4E7EF2D
:101DC8000EF0E9EF0EF062EF0FF0000E4824D96E26
:101DD800DA6A050EDA22000E4824E16EE26A050E80
:101DE800E222E750D00FDF6E000E4824D96EDA6A7F
:101DF800050EDA22DF500401F66FF6510601E36F93
:101E0800E46BE3C60FF0E4C610F0000E126E0A0E83
:101E1800116E34EC5FF00FC0E3F610C0E4F6010E6B
:101E28004824D96EDA6A050EDA22010E4824E16EDA
:101E3800E26A050EE222E750D00FDF6E010E482459
:101E4800D96EDA6A050EDA22DF500401F66FF65110
:101E58000601E325E36F000EE421E46FE22B48EF6F
:101E68000FF0E3C6E0F6000E0601E46F000EE36F24
:101E780062EF0FF0E3C6E1F637EF0FF00601E3512A
:101E8800A6EC33F037EF0FF0E2510401F66FF76B71
:101E9800F751000AD8B453EF0FF062EF0FF0F65184
:101EA800010AD8B435EF0FF0030AD8B43EEF0FF0AB
:101EB800010AD8B442EF0FF062EF0FF0030E482684
:101EC800020E0601E2656BEF0FF06DEF0FF0D8EF31
:101ED8000EF0000E476EF2EF10F04750160D680E28
:101EE800F324D96E090EF420DA6E0F0EDF6E475018
:101EF800160D690EF324D96E090EF420DA6E010E60
:101F0800DF6E4750160D6A0EF324D96E090EF420C1
:101F1800DA6EE0C6DFFF4750160D6B0EF324D96E5C
:101F2800090EF420DA6EE1C6DFFF4750160D6C0E7D
:101F3800F324D96E090EF420DA6E38C0DFFF47505B
:101F4800160D6D0EF324D96E090EF420DA6E3BC01F
:101F5800DFFF4750160D6E0EF324D96E090EF420DC
:101F6800DA6E3CC0DFFF4750160D640EF324D96EBD
:101F7800090EF420DA6E640EDE6E000EDD6E475038
:101F8800160D660EF324D96E090EF420DA6E300EA3
:101F9800DE6E750EDD6E4750160D720EF324D96E87
:101FA800090EF420DA6E4728DF6E4750160D760EBC
:101FB800F324D96E090EF420DA6E000EDF6E475056
:101FC800160D740EF324D96E090EF420DA6E020E83
:101FD800DF6E4750160D750EF324D96E090EF420E6
:101FE800DA6E020EDF6E4750160D770EF324D96EA7
:101FF800090EF420DA6E010EDF6E4750160D6F0ED3
:10200800F324D96E090EF420DA6E050EDF6E475000
:10201800160D700EF324D96E090EF420DA6E0F0E29
:10202800DF6E4750160D710EF324D96E090EF42099
:10203800DA6E4728DF6E4750160D730EF324D96EFB
:10204800090EF420DA6E000EDF6E4750160D790E79
:10205800F324D96E090EF420DA6E000EDF6E4750B5
:10206800160D780EF324D96E090EF420DA6E010EDF
:10207800DF6E4750020D490EF324F66EF20EF4207F
:10208800F76E0900F5CF17F00A00F5CF18F04750A2
:10209800160D640EF324196E090EF4201A6EA4ECC2
:1020A80046F0000E106E640E0F6E28EC58F0475084
:1020B800020D490EF324F66EF20EF420F76E0900B5
:1020C800F5CF17F00A00F5CF18F04750160D640E3B
:1020D800F324196E090EF4201A6E97EC57F0000ECF
:1020E800106E640E0F6E28EC58F04750020D490E22
:1020F800F324F66EF20EF420F76E0900F5CF17F010
:102108000A00F5CF18F04750160D640EF324196E27
:10211800090EF4201A6E21EC5EF0000E106E640EAB
:102128000F6E28EC58F04750020D490EF324F66E56
:10213800F20EF420F76E0900F5CF17F00A00F5CF7C
:1021480018F04750160D640EF324196E090EF4208A
:102158001A6E04EC5EF0000E106E640E0F6E28EC22
:1021680058F04750020D490EF324F66EF20EF42093
:10217800F76E0900F5CF17F00A00F5CF18F04750B1
:10218800160D640EF324196E090EF4201A6EE7EC8E
:102198005DF0000E106E640E0F6E28EC58F047507C
:1021A800020D490EF324F66EF20EF420F76E0900C4
:1021B800F5CF17F00A00F5CF18F04750160D640E4A
:1021C800F324196E090EF4201A6EFDEC4EF0000E81
:1021D800106E640E0F6E28EC58F0472A0B0E4764F9
:1021E800F8EF10F0FAEF10F071EF0FF0000E486EF4
:1021F800B40E276EFD0E286E980E296E000E2A6EFC
:10220800000E2B6E34EC12F033EF12F0000E0F6E4E
:10221800050E106EFB0E116E000E126E000E146E7F
:10222800020E136EECEC53F00F501010D8A41FEFF1
:1022380011F021EF11F0C6EF11F0030E0F6E050E2D
:10224800106EAA0E116E000E126E000E146E060E9F
:10225800136EECEC53F00F501010D8A436EF11F0B9
:1022680038EF11F0A8EF11F05050D8B43EEF11F04C
:1022780040EF11F04EEF11F0000E486EB40E276ECD
:10228800F80E286E980E296E000E2A6E010E2B6E1F
:1022980034EC12F0AA0E0F6E000E106E0A0E116EBC
:1022A800050E126E000E146E060E136EB0EC58F08A
:1022B800980E0F6E000E106E840E116E000E126EC8
:1022C800000E146E0A0E136EB0EC58F0010E506E2C
:1022D800840E0F6E000E106EF40E116E020E126E4A
:1022E800000E146E0A0E136EB0EC58F0000E106E4D
:1022F800320E0F6E28EC58F084EC5AF0000E106E77
:10230800320E0F6E28EC58F0BAEC5AF0000E106E30
:10231800320E0F6E28EC58F074EC5EF0000E106E62
:10232800320E0F6E28EC58F0000E486E740E276EB1
:10233800FD0E286E980E296E000E2A6E000E2B6E6A
:1023480034EC12F033EF12F0000E486E5D0E276E7B
:10235800FD0E286E840E296E000E2A6E000E2B6E5E
:1023680034EC12F0840E0F6E000E106EF40E116E27
:10237800020E126E000E146E0A0E136EB0EC58F0B8
:1023880033EF12F0000E0F6E050E106EEE0E116E8A
:10239800010E126E000E146E040E136EECEC53F068
:1023A8000F501010D8A4DBEF11F0DDEF11F0EDEFB6
:1023B80011F0000E486E8B0E276EFD0E286E840EEF
:1023C800296E000E2A6E000E2B6E34EC12F0B6EF5A
:1023D80011F0000E0F6E050E106EEA0E116E040E4F
:1023E800126E000E146E0B0E136EECEC53F00F50C1
:1023F8001010D8A402EF12F004EF12F014EF12F04C
:10240800000E486ED80E276EFD0E286E840E296EBB
:10241800000E2A6E040E2B6E34EC12F0B6EF11F09B
:10242800000E0F6E060EC4EC5FF003EF02F08FECA7
:102438005EF0000E0F6E070EC4EC5FF0030E106E18
:10244800E80E0F6E28EC58F033EF12F08FEC5EF0C8
:10245800000E0F6E080EC4EC5FF003EF02F01200DE
:102468001E0E0001736F8B0E176EFF0E186EA8EC10
:102478005DF0000E106E320E0F6E28EC58F029C079
:1024880017F02AC018F00A0E196EC9EC5DF0000E9C
:10249800106E320E0F6E28EC58F0DB0E176EFE0E23
:1024A800186EA8EC5DF0000E106E640E0F6E28EC2E
:1024B80058F027C017F028C018F0A8EC5DF0000EFF
:1024C800106E640E0F6E28EC58F022EF1BF0840E8D
:1024D800176E000E186E0A0E196EC9EC5DF0000E2C
:1024E800106E640E0F6E28EC58F04FEF1BF0840E40
:1024F800176E000E186E020E196EC9EC5DF073EFC0
:1025080012F0840E176E000E186E110E196EC9ECBB
:102518005DF073EF12F0A30E176E000E186E060E24
:10252800196EC9EC5DF073EF12F066C034F067C045
:1025380035F034C015F035C016F0030E186EE80EED
:10254800176EA7EC59F01550300F0001926F34C088
:102558000FF035C010F0030E126EE80E116E5AEC33
:102568005BF00FC034F010C035F034C015F035C042
:1025780016F0000E186E640E176EA7EC59F0155081
:10258800300F0001936F34C00FF035C010F0000E0B
:10259800126E640E116E5AEC5BF00FC034F010C06E
:1025A80035F034C015F035C016F0000E186E0A0E5E
:1025B800176EA7EC59F01550300F0001946F34C016
:1025C8000FF035C010F0000E126E0A0E116E5AECA4
:1025D8005BF00FC034F010C035F03450300F0001FC
:1025E800956F920E176E000E186E040E196EC9ECD8
:1025F8005DF0000E106E320E0F6E28EC58F0DF0EF4
:10260800176EFF0E186EA8EC5DF0000E106E320EFD
:102618000F6E28EC58F0B5C034F0B6C035F034C0B1
:1026280015F035C016F0030E186EE80E176EA7ECFD
:1026380059F01550300F0001926F34C00FF035C0BB
:1026480010F0030E126EE80E116E5AEC5BF00FC01C
:1026580034F010C035F034C015F035C016F0000E57
:10266800186E640E176EA7EC59F01550300F000164
:10267800936F34C00FF035C010F0000E126E640E68
:10268800116E5AEC5BF00FC034F010C035F034C056
:1026980015F035C016F0000E186E0A0E176EA7EC6E
:1026A80059F01550300F0001946F34C00FF035C049
:1026B80010F0000E126E0A0E116E5AEC5BF00FC08D
:1026C80034F010C035F03450300F0001956F920E81
:1026D800176E000E186E040E196EC9EC5DF073EFDC
:1026E80012F0840E176E000E186E020E196EC9ECE9
:1026F8005DF0000E106E320E0F6E28EC58F0F70EDB
:10270800176EFF0E186EA8EC5DF0000E106E320EFC
:102718000F6E28EC58F060C034F061C035F034C05A
:1027280015F035C016F0270E186E100E176EA7ECB0
:1027380059F01550300F0001926F34C00FF035C0BA
:1027480010F0270E126E100E116E5AEC5BF00FC0CF
:1027580034F010C035F034C015F035C016F0030E53
:10276800186EE80E176EA7EC59F01550300F0001DF
:10277800936F34C00FF035C010F0030E126EE80EE0
:10278800116E5AEC5BF00FC034F010C035F034C055
:1027980015F035C016F0000E186E640E176EA7EC13
:1027A80059F01550300F0001946F34C00FF035C048
:1027B80010F0000E126E640E116E5AEC5BF00FC032
:1027C80034F010C035F034C015F035C016F0000EE6
:1027D800186E0A0E176EA7EC59F01550300F00014D
:1027E800956F34C00FF035C010F0000E126E0A0E4F
:1027F800116E5AEC5BF00FC034F010C035F0345055
:10280800300F0001966F920E176E000E186E050EAF
:10281800196EC9EC5DF073EF12F0000E106E0A0E1F
:102828000F6E28EC58F0840E176E000E186E020E0C
:10283800196EC9EC5DF0000E106E0A0E0F6E28ECD2
:1028480058F0C20E176EFF0E186EA8EC5DF0000E61
:10285800106E0A0E0F6E28EC58F04750160D680ED1
:10286800F324D96E090EF420DA6EDF500001856F6B
:1028780085C00FF0106A000E126E640E116EB7EC70
:1028880054F00F50300F0001846F840E176E000E45
:10289800186E010E196EC9EC5DF0000E106E0A0E6E
:1028A8000F6E28EC58F085C021F0226A000E246EC5
:1028B800640E236E19EC55F021500001856F85C018
:1028C8000FF0106A000E126E0A0E116EB7EC54F07B
:1028D8000F50300F0001846F840E176E000E186EB3
:1028E800010E196EC9EC5DF0000E106E0A0E0F6E27
:1028F80028EC58F085C021F0226A000E246E0A0EDA
:10290800236E19EC55F021500001856F8551300F69
:10291800846F840E176E000E186E010E196EC9ECC6
:102928005DF0000E106E0A0E0F6E28EC58F0B00E17
:10293800176EFF0E186EA8EC5DF0000E106E0A0EF2
:102948000F6E28EC58F04750160D690EF324D96E17
:10295800090EF420DA6EDF500001856F85C021F082
:10296800226A000E246E640E236E19EC55F0215075
:102978000001856F85C00FF0106A000E126E0A0EF6
:10298800116EB7EC54F00F50300F0001846F840EB5
:10299800176E000E186E010E196EC9EC5DF0000E70
:1029A800106E0A0E0F6E28EC58F085C021F0226ACE
:1029B800000E246E0A0E236E19EC55F0215000010A
:1029C800856F8551300F846F840E176E000E186E58
:1029D800010E196EC9EC5DF0000E106E0A0E0F6E36
:1029E80028EC58F0F10E176EFF0E186EA8EC5DF08B
:1029F800000E106E0A0E0F6E28EC58F04750160D98
:102A0800640EF324D96E090EF420DA6EDECF34F0AA
:102A1800DDCF35F034C015F035C016F0000E186E55
:102A2800640E176EA7EC59F01550300F0001846F33
:102A3800840E176E000E186E010E196EC9EC5DF04B
:102A4800000E106E0A0E0F6E28EC58F034C00FF00E
:102A580035C010F0000E126E640E116E5AEC5BF069
:102A68000FC034F010C035F034C015F035C016F082
:102A7800000E186E0A0E176EA7EC59F01550300F9D
:102A88000001846F840E176E000E186E010E196E09
:102A9800C9EC5DF0000E106E0A0E0F6E28EC58F0AF
:102AA80034C00FF035C010F0000E126E0A0E116E11
:102AB8005AEC5BF00FC034F010C035F03450300FD2
:102AC8000001846F840E176E000E186E010E196EC9
:102AD800C9EC5DF0000E106E0A0E0F6E28EC58F06F
:102AE800EB0E176EFF0E186EA8EC5DF0000E106E60
:102AF8000A0E0F6E28EC58F04750160D660EF32498
:102B0800D96E090EF420DA6EDECF34F0DDCF35F061
:102B180034C015F035C016F0000E186E640E176E2E
:102B2800A7EC59F01550300F0001846F840E176E12
:102B3800000E186E010E196EC9EC5DF0000E106ED5
:102B48000A0E0F6E28EC58F034C00FF035C010F0A4
:102B5800000E126E640E116E5AEC5BF00FC034F06A
:102B680010C035F034C015F035C016F0000E186EE0
:102B78000A0E176EA7EC59F01550300F0001846F3C
:102B8800840E176E000E186E010E196EC9EC5DF0FA
:102B9800000E106E0A0E0F6E28EC58F034C00FF0BD
:102BA80035C010F0000E126E0A0E116E5AEC5BF072
:102BB8000FC034F010C035F03450300F0001846F6E
:102BC800840E176E000E186E010E196EC9EC5DF0BA
:102BD800000E106E0A0E0F6E28EC58F0750E176E68
:102BE800FF0E186EA8EC5DF0000E106E0A0E0F6E48
:102BF80028EC58F04750160D6C0EF324D96E090EC8
:102C0800F420DA6EDF500001856F85C021F0226A5A
:102C1800000E246E640E236E19EC55F0215000014D
:102C2800856F85C00FF0106A000E126E0A0E116EC5
:102C3800B7EC54F00F50300F0001846F840E176EFC
:102C4800000E186E010E196EC9EC5DF0000E106EC4
:102C58000A0E0F6E28EC58F085C021F0226A000E8B
:102C6800246E0A0E236E19EC55F021500001856F71
:102C78008551300F846F840E176E000E186E010E8A
:102C8800196EC9EC5DF0000E106E0A0E0F6E28EC7E
:102C980058F04750160D6D0EF324D96E090EF42026
:102CA800DA6EDF500001856F85C021F0226A000EC0
:102CB800246E640E236E19EC55F021500001856FC7
:102CC80085C00FF0106A000E126E0A0E116EB7EC76
:102CD80054F00F50300F0001846F840E176E000EF1
:102CE800186E010E196EC9EC5DF0000E106E0A0E1A
:102CF8000F6E28EC58F085C021F0226A000E246E71
:102D08000A0E236E19EC55F021500001856F85518C
:102D1800300F846F840E176E000E186E010E196E38
:102D2800C9EC5DF0000E106E0A0E0F6E28EC58F01C
:102D38004750160D6E0EF324D96E090EF420DA6E84
:102D4800DF500001856F85C021F0226A000E246ED5
:102D5800640E236E19EC55F021500001856F85C073
:102D68000FF0106A000E126E0A0E116EB7EC54F0D6
:102D78000F50300F0001846F840E176E000E186E0E
:102D8800010E196EC9EC5DF0000E106E0A0E0F6E82
:102D980028EC58F085C021F0226A000E246E0A0E35
:102DA800236E19EC55F021500001856F8551300FC5
:102DB800846F840E176E000E186E010E196EC9EC22
:102DC8005DF0000E106E0A0E0F6E28EC58F0FC0E27
:102DD800176EFF0E186EA8EC5DF0000E106E0A0E4E
:102DE8000F6E28EC58F04750160D6A0EF324D96E72
:102DF800090EF420DA6EDF500001856F85C021F0DE
:102E0800226A000E246E640E236E19EC55F02150D0
:102E18000001856F85C00FF0106A000E126E0A0E51
:102E2800116EB7EC54F00F50300F0001846F840E10
:102E3800176E000E186E010E196EC9EC5DF0000ECB
:102E4800106E0A0E0F6E28EC58F085C021F0226A29
:102E5800000E246E0A0E236E19EC55F02150000165
:102E6800856F8551300F846F840E176E000E186EB3
:102E7800010E196EC9EC5DF0000E106E0A0E0F6E91
:102E880028EC58F0B70E176EFF0E186EA8EC5DF020
:102E9800000E106E0A0E0F6E28EC58F04750160DF3
:102EA8006B0EF324D96E090EF420DA6EDF500001A0
:102EB800856F85C021F0226A000E246E640E236E91
:102EC80019EC55F021500001856F85C00FF0106A8C
:102ED800000E126E0A0E116EB7EC54F00F50300F40
:102EE8000001846F840E176E000E186E010E196EA5
:102EF800C9EC5DF0000E106E0A0E0F6E28EC58F04B
:102F080085C021F0226A000E246E0A0E236E19EC89
:102F180055F021500001856F8551300F846F840E64
:102F2800176E000E186E010E196EC9EC5DF0000EDA
:102F3800106E0A0E0F6E28EC58F0DC0E176EFE0E9F
:102F4800186EA8EC5DF04750160D780EF324D96E74
:102F5800090EF420DA6EDF50D8B4B5EF17F0B7EFEA
:102F680017F021EF19F0050E176EFE0E186EA8EC7B
:102F78005DF0000E106E0A0E0F6E28EC58F04750E8
:102F8800160D6F0EF324D96E090EF420DA6EDF5099
:102F98000001856F85C00FF0106A000E126E640E76
:102FA800116EB7EC54F00F50300F0001846F840E8F
:102FB800176E000E186E010E196EC9EC5DF0000E4A
:102FC800106E0A0E0F6E28EC58F085C021F0226AA8
:102FD800000E246E640E236E19EC55F0215000018A
:102FE800856F85C00FF0106A000E126E0A0E116E02
:102FF800B7EC54F00F50300F0001846F840E176E39
:10300800000E186E010E196EC9EC5DF0000E106E00
:103018000A0E0F6E28EC58F085C021F0226A000EC7
:10302800246E0A0E236E19EC55F021500001856FAD
:103038008551300F846F840E176E000E186E010EC6
:10304800196EC9EC5DF0000E106E0A0E0F6E28ECBA
:1030580058F0C20E176EFF0E186EA8EC5DF0000E49
:10306800106E0A0E0F6E28EC58F04750160D700EB1
:10307800F324D96E090EF420DA6EDF500001856F53
:1030880085C00FF0106A000E126E640E116EB7EC58
:1030980054F00F50300F0001846F840E176E000E2D
:1030A800186E010E196EC9EC5DF0000E106E0A0E56
:1030B8000F6E28EC58F085C021F0226A000E246EAD
:1030C800640E236E19EC55F021500001856F85C000
:1030D8000FF0106A000E126E0A0E116EB7EC54F063
:1030E8000F50300F0001846F840E176E000E186E9B
:1030F800010E196EC9EC5DF0000E106E0A0E0F6E0F
:1031080028EC58F085C021F0226A000E246E0A0EC1
:10311800236E19EC55F021500001856F8551300F51
:10312800846F840E176E000E186E010E196EC9ECAE
:103138005DF0000E106E0A0E0F6E28EC58F03C0E73
:10314800176EFF0E186EA8EC5DF0000E106E0A0EDA
:103158000F6E28EC58F04750160D710EF324D96EF7
:10316800090EF420DA6EDF500001856F85C00FF07C
:10317800106A000E126E640E116EB7EC54F00F5008
:10318800300F0001846F840E176E000E186E010E4A
:10319800196EC9EC5DF0000E106E0A0E0F6E28EC69
:1031A80058F085C021F0226A000E246E640E236E4A
:1031B80019EC55F021500001856F85C00FF0106A99
:1031C800000E126E0A0E116EB7EC54F00F50300F4D
:1031D8000001846F840E176E000E186E010E196EB2
:1031E800C9EC5DF0000E106E0A0E0F6E28EC58F058
:1031F80085C021F0226A000E246E0A0E236E19EC97
:1032080055F021500001856F8551300F846F840E71
:10321800176E000E186E010E196EC9EC5DF0000EE7
:10322800106E0A0E0F6E28EC58F0DC0E176EFE0EAC
:10323800186EA8EC5DF04FEF1BF0250E176EFE0E12
:10324800186EA8EC5DF0000E106E0A0E0F6E28ECDA
:1032580058F04FEF1BF0000E106E0A0E0F6E28ECA0
:1032680058F05F0E176EFF0E186EA8EC5DF0000E9A
:10327800106E0A0E0F6E28EC58F06CC085F085C0F1
:1032880021F0226A000E246E640E236E19EC55F0AC
:1032980021500001856F85C00FF0106A000E126E74
:1032A8000A0E116EB7EC54F00F50300F0001846F06
:1032B800840E176E000E186E010E196EC9EC5DF0C3
:1032C800000E106E0A0E0F6E28EC58F085C021F023
:1032D800226A000E246E0A0E236E19EC55F0215056
:1032E8000001856F8551300F846F840E176E000EB4
:1032F800186E010E196EC9EC5DF0000E106E0A0E04
:103308000F6E28EC58F0D80E176EFF0E186EA8EC4A
:103318005DF0000E106E0A0E0F6E28EC58F09E0E2F
:10332800176EFF0E186EA8EC5DF0000E106E0A0EF8
:103338000F6E28EC58F06BC085F085C021F0226A2A
:10334800000E246E640E236E19EC55F02150000116
:10335800856F85C00FF0106A000E126E0A0E116E8E
:10336800B7EC54F00F50300F0001846F840E176EC5
:10337800000E186E010E196EC9EC5DF0000E106E8D
:103388000A0E0F6E28EC58F085C021F0226A000E54
:10339800246E0A0E236E19EC55F021500001856F3A
:1033A8008551300F846F840E176E000E186E010E53
:1033B800196EC9EC5DF0000E106E0A0E0F6E28EC47
:1033C80058F0D80E176EFF0E186EA8EC5DF0000EC0
:1033D800106E0A0E0F6E28EC58F0A70E176EFF0E2F
:1033E800186EA8EC5DF0000E106E0A0E0F6E28EC39
:1033F80058F06AC085F085C021F0226A000E246E5C
:10340800640E236E19EC55F021500001856F85C0BC
:103418000FF0106A000E126E0A0E116EB7EC54F01F
:103428000F50300F0001846F840E176E000E186E57
:10343800010E196EC9EC5DF0000E106E0A0E0F6ECB
:1034480028EC58F085C021F0226A000E246E0A0E7E
:10345800236E19EC55F021500001856F8551300F0E
:10346800846F840E176E000E186E010E196EC9EC6B
:103478005DF0000E106E0A0E0F6E28EC58F0E50E87
:10348800176EFF0E186EA8EC5DF0000E106E0A0E97
:103498000F6E28EC58F06A0E176EFF0E186EA8EC27
:1034A8005DF0000E106E0A0E0F6E28EC58F03AC050
:1034B80085F085C021F0226A000E246E640E236E0A
:1034C80019EC55F021500001856F85C00FF0106A86
:1034D800000E126E0A0E116EB7EC54F00F50300F3A
:1034E8000001846F840E176E000E186E010E196E9F
:1034F800C9EC5DF0000E106E0A0E0F6E28EC58F045
:1035080085C021F0226A000E246E0A0E236E19EC83
:1035180055F021500001856F8551300F846F840E5E
:10352800176E000E186E010E196EC9EC5DF0000ED4
:10353800106E0A0E0F6E28EC58F0D80E176EFF0E9C
:10354800186EA8EC5DF0000E106E0A0E0F6E28ECD7
:1035580058F0890E176EFE0E186EA8EC5DF0000E7E
:10356800106E0A0E0F6E28EC58F069C085F085C001
:103578000FF0106A000E126E640E116EB7EC54F064
:103588000F50300F0001846F840E176E000E186EF6
:10359800010E196EC9EC5DF0000E106E0A0E0F6E6A
:1035A80028EC58F085C021F0226A000E246E640EC3
:1035B800236E19EC55F021500001856F85C00FF07E
:1035C800106A000E126E0A0E116EB7EC54F00F500E
:1035D800300F0001846F840E176E000E186E010EF6
:1035E800196EC9EC5DF0000E106E0A0E0F6E28EC15
:1035F80058F085C021F0226A000E246E0A0E236E50
:1036080019EC55F021500001856F8551300F846FFA
:10361800840E176E000E186E010E196EC9EC5DF05F
:10362800000E106E0A0E0F6E28EC58F0E50E176E9D
:10363800FF0E186EA8EC5DF027EF19F02B502C6EDA
:103648002D6A2D50000AD8B42CEF1BF04FEF1BF059
:103658002C50010AD8B46BEF12F0030AD8B47BEFF0
:1036680012F0010AD8B485EF12F0070AD8B48FEF28
:1036780012F0010AD8B499EF12F0030AD8B475EF22
:1036880013F0010AD8B411EF14F00F0AD8B42FEFD1
:1036980019F04FEF1BF0000E4D6E000E486E1A0E1B
:1036A80090EC5FF0000E106E640E0F6E28EC58F070
:1036B800000E0F6E000EC4EC5FF0C9804D50D8B4F8
:1036C80068EF1BF06AEF1BF062EF1BF00E01388504
:1036D800000E0F6E0F0EC4EC5FF0010E106EF40EAC
:1036E8000F6E28EC58F01200000E0101FF6FD7A2F0
:1036F80080EF1BF082EF1BF0ACEF1BF0D7A487EF35
:103708001BF089EF1BF0ACEF1BF0D7A68EEF1BF078
:1037180090EF1BF0ACEF1BF0D7A095EF1BF097EFE5
:103728001BF0ACEF1BF0D7A89CEF1BF09EEF1BF033
:10373800ACEF1BF0D7BEA3EF1BF0A5EF1BF0ACEF6F
:103748001BF0D7ACAAEF1BF0ACEF1BF0A6EF1EF0F6
:10375800D7A2B1EF1BF0B3EF1BF0BAEF1BF0D7B055
:10376800B8EF1BF0BAEF1BF0BFEF1BF0D786D7847A
:10377800D788D79ED79CD7B2C4EF1BF0C6EF1BF0F3
:10378800CBEF1BF0010EFF6FD7820FEF1CF0D7B005
:10379800D0EF1BF0D2EF1BF0D7EF1BF0020EFF6F3C
:1037A800D7800FEF1CF0D7B6DCEF1BF0DEEF1BF075
:1037B800E3EF1BF0030EFF6FD7860FEF1CF0D7B4B3
:1037C800E8EF1BF0EAEF1BF0EFEF1BF0040EFF6FC2
:1037D800D7840FEF1CF0D7B8F4EF1BF0F6EF1BF00F
:1037E800FBEF1BF0050EFF6FD7880FEF1CF0D7BE5D
:1037F80000EF1CF002EF1CF009EF1CF0D7AC07EF4C
:103808001CF009EF1CF00FEF1CF0060EFF6FD79E9F
:10381800D79C0FEF1CF0030EFF19D8B416EF1CF05D
:1038280018EF1CF01EEF1CF0750E106E300E0F6EA8
:1038380028EC58F025EC4AF0030E106EE80E0F6ED7
:1038480028EC58F03EEC3EF0030E106EE80E0F6EBA
:1038580028EC58F0C1EC4DF0030E106EE80E0F6E18
:1038680028EC58F021EC4DF0030E106EE80E0F6EA8
:1038780028EC58F000017551D8A445EF1CF047EF2B
:103888001CF04FEF1CF0010E756FBAEC56F018ECF7
:103898005AF003EC5DF0030E0101FF19D8A457EFAD
:1038A8001CF059EF1CF0A4EF1EF0000E476E74EFE9
:1038B8001CF0010E0F6E000EC4EC5FF0010E106ECE
:1038C800F40E0F6E28EC58F0010E0F6E0F0EC4ECBC
:1038D8005FF0010E106EF40E0F6E28EC58F0472AB8
:1038E800050E47607AEF1CF07CEF1CF085EF1CF0AA
:1038F80000017151D8B483EF1CF085EF1CF05DEF27
:103908001CF000017151D8A48CEF1CF08EEF1CF054
:1039180073EF1EF0010E476E090E476496EF1CF018
:1039280098EF1CF09AEF1CF0ACEF1CF00001712B23
:10393800E2EC5CF0010E0F6E4750C4EC5FF0270E0E
:10394800106E100E0F6E28EC58F0472A90EF1CF0FE
:10395800000E0001716FE2EC5CF0A4EF1EF0000EA7
:10396800716FE2EC5CF0000E476E040E4764BFEF27
:103978001CF0C1EF1CF0C3EF1CF0DCEF1CF0010ED3
:103988000F6E0F0EC4EC5FF0010E106EF40E0F6E8A
:1039980028EC58F0010E0F6E010EC4EC5FF0030E18
:1039A800106EE80E0F6E28EC58F0472AB9EF1CF09D
:1039B800000E1C6E020E10EC38F08E9E000E486E43
:1039C800A90E276EF90E286E980E296E000E2A6E23
:1039D800050E2B6E34EC12F0ACEF1CF0000E716F7C
:1039E800E2EC5CF0000E476E040E4764FEEF1CF03C
:1039F80000EF1DF002EF1DF01BEF1DF0010E0F6E22
:103A08000F0EC4EC5FF0010E106EF40E0F6E28EC72
:103A180058F0010E0F6E020EC4EC5FF0030E106E2C
:103A2800E80E0F6E28EC58F0472AF8EF1CF0000E4D
:103A38001C6E010E10EC38F0E2EF1CF0000E716FF6
:103A4800E2EC5CF0000E476E040E47642EEF1DF0AA
:103A580030EF1DF032EF1DF04BEF1DF0010E0F6E31
:103A68000F0EC4EC5FF0010E106EF40E0F6E28EC12
:103A780058F0010E0F6E030EC4EC5FF0030E106ECB
:103A8800E80E0F6E28EC58F0472A28EF1DF0C2EC1C
:103A980041F0ACEF1CF0000E716FE2EC5CF0000E30
:103AA800476E040E47645BEF1DF05DEF1DF05FEF9E
:103AB8001DF0ACEF1CF0010E0F6E0F0EC4EC5FF0A2
:103AC800010E106EF40E0F6E28EC58F0010E0F6EFA
:103AD800040EC4EC5FF0030E106EE80E0F6E28ECB7
:103AE80058F0472A55EF1DF0000E716FE2EC5CF0BC
:103AF800000E476E040E476484EF1DF086EF1DF03C
:103B080088EF1DF0ACEF1CF0010E0F6E0F0EC4EC29
:103B18005FF0010E106EF40E0F6E28EC58F0010ED7
:103B28000F6E050EC4EC5FF0030E106EE80E0F6EFC
:103B380028EC58F0472A7EEF1DF0000E716FE2EC7A
:103B48005CF0000E476E040E4764ADEF1DF0AFEF5A
:103B58001DF0B1EF1DF0ACEF1CF0010E0F6E0F0E53
:103B6800C4EC5FF0010E106EF40E0F6E28EC58F0E6
:103B7800010E0F6E060EC4EC5FF0030E106EE80E19
:103B88000F6E28EC58F0472AA7EF1DF0000E716F52
:103B9800E2EC5CF05050D8B4D4EF1DF0D6EF1DF035
:103BA800ACEF1CF0000E476E040E4764DEEF1DF00C
:103BB800E0EF1DF0E2EF1DF0FBEF1DF0010E0F6EC0
:103BC8000F0EC4EC5FF0010E106EF40E0F6E28ECB1
:103BD80058F0010E0F6E070EC4EC5FF0030E106E66
:103BE800E80E0F6E28EC58F0472AD8EF1DF08FEC3E
:103BF80047F0B7EC5BF0030E106EE80E0F6E28EC82
:103C080058F03EEC3EF0ACEF1CF0000E716FE2ECA9
:103C18005CF05050D8B413EF1EF015EF1EF0ACEF67
:103C28001CF0000E476E040E47641DEF1EF01FEFD8
:103C38001EF021EF1EF03AEF1EF0010E0F6E0F0E70
:103C4800C4EC5FF0010E106EF40E0F6E28EC58F005
:103C5800010E0F6E080EC4EC5FF0030E106EE80E36
:103C68000F6E28EC58F0472A17EF1EF08FEC47F03C
:103C7800FFEF1DF0000E716FE2EC5CF05050D8B40D
:103C880048EF1EF04AEF1EF0ACEF1CF0000E476E36
:103C9800040E476452EF1EF054EF1EF056EF1EF06C
:103CA8006FEF1EF0010E0F6E0F0EC4EC5FF0010EE9
:103CB800106EF40E0F6E28EC58F0010E0F6E090E00
:103CC800C4EC5FF0030E106EE80E0F6E28EC58F08F
:103CD800472A4CEF1EF0B7EC5BF0FFEF1DF0715177
:103CE800FE6FFF6BFF51000AD8B47DEF1EF0ACEFFA
:103CF8001CF0FE51010AD8B4B3EF1CF0030AD8B483
:103D0800F2EF1CF0010AD8B422EF1DF0070AD8B46C
:103D18004FEF1DF0010AD8B478EF1DF0030AD8B4AC
:103D2800A1EF1DF0010AD8B4CAEF1DF00F0AD8B4EC
:103D380009EF1EF0010AD8B43EEF1EF0ACEF1CF0FC
:103D48008CEC5BF05050D8B4ACEF1EF0AEEF1EF028
:103D58001CEF22F087EC5DF00009D8B4B6EF1EF036
:103D6800B8EF1EF0CDEF1EF0FF0E376EDC0E366E8C
:103D78001F0E276EF70E286E980E296E000E2A6EFB
:103D8800000E2B6E34EC12F0010E0001786F40EF3C
:103D980022F0000E0001706F000E476E29EF20F030
:103DA8004750160D760EF324D96E090EF420DA6EFC
:103DB800DE04D8A4E2EF1EF0E4EF1EF028EF20F0B6
:103DC80071EC55F04750160D6E0EF324D96E090E9E
:103DD800F420DA6E4250DE5CD8A0F5EF1EF0F7EF63
:103DE8001EF090EF1FF04750160D6D0EF324D96E9C
:103DF800090EF420DA6E4150DE5CD8B006EF1FF0F1
:103E080008EF1FF019EF1FF04750160D6E0EF32440
:103E1800D96E090EF420DA6E4250DE18D8B417EFC6
:103E28001FF019EF1FF090EF1FF04750160D6C0EA2
:103E3800F324D96E090EF420DA6E4050DE5CD8B057
:103E480028EF1FF02AEF1FF04CEF1FF04750160D18
:103E58006D0EF324D96E090EF420DA6E4150DE1887
:103E6800D8A439EF1FF03BEF1FF04CEF1FF047507D
:103E7800160D6E0EF324D96E090EF420DA6E425038
:103E8800DE18D8B44AEF1FF04CEF1FF090EF1FF088
:103E98004750160D6A0EF324D96E090EF420DA6E17
:103EA8003F50DE5CD8B05BEF1FF05DEF1FF022EFF4
:103EB80020F04750160D6C0EF324D96E090EF4202D
:103EC800DA6E4050DE18D8A46CEF1FF06EEF1FF0CA
:103ED80022EF20F04750160D6D0EF324D96E090E0F
:103EE800F420DA6E4150DE18D8A47DEF1FF07FEF82
:103EF8001FF022EF20F04750160D6E0EF324D96EF6
:103F0800090EF420DA6E4250DE18D8A48EEF1FF0A6
:103F180090EF1FF022EF20F0000E4B6E4750160D69
:103F2800760EF324D96E090EF420DA6E000EDF6ED9
:103F38004750160D740EF324D96E090EF420DA6E6C
:103F48004750160D750EF324E16E090EF420E26E4B
:103F5800DFCFE7FF47C070F04750160D780EF32407
:103F6800D96E090EF420DA6EDF50D8B4BEEF1FF018
:103F7800C0EF1FF01AEF20F04750160D730EF32410
:103F8800D96E090EF420DA6E020EDE18D8A4CFEF2F
:103F98001FF0D1EF1FF0EFEF1FF04750160D730E13
:103FA800F324D96E090EF420DA6E000EDF6E475046
:103FB800160D790EF324D96E090EF420DA6E010E6F
:103FC800DF6E16EC56F019C064F01AC065F030ECDC
:103FD80059F01AEF20F04750160D730EF324D96EDE
:103FE800090EF420DA6E030EDE18D8B4FEEF1FF0C7
:103FF80000EF20F010EF20F04750160D730EF32459
:10400800D96E090EF420DA6EDE04D8A40EEF20F083
:1040180010EF20F01AEF20F04750160D730EF3241E
:10402800D96E090EF420DA6E000EDF6E000E106EE7
:10403800640E0F6E28EC58F031EF20F0010E4B6E35
:1040480047C070F031EF20F0472A0B0E47642FEF7E
:1040580020F031EF20F0D4EF1EF04B50D8B437EFFA
:1040680020F039EF20F039EF21F0010E00017C6FCC
:10407800090E476042EF20F044EF20F04BEF20F0AC
:10408800300E846F4750310F856FB6EF20F0080E61
:10409800476451EF20F053EF20F0B6EF20F00C0EFC
:1040A800476059EF20F05BEF20F0B6EF20F0310EBB
:1040B800846F4750270F856FB6EF20F0A40E276E48
:1040C800F40E286E980E296E000E2A6E020E2B6EC4
:1040D80034EC12F0DDEF20F03F0E276EF50E286E5F
:1040E800980E296E000E2A6E020E2B6E34EC12F01A
:1040F800DDEF20F0F20E276EF40E286E980E296E72
:10410800000E2A6E020E2B6E34EC12F0DDEF20F05A
:10411800520E276EF40E286E980E296E000E2A6E27
:10412800020E2B6E34EC12F0DDEF20F0D40E276E69
:10413800F50E286E980E296E000E2A6E020E2B6E52
:1041480034EC12F0DDEF20F08A0E276EF50E286EA3
:10415800980E296E000E2A6E020E2B6E34EC12F0A9
:10416800DDEF20F00101FF510001FE6FFF6BFF51F1
:10417800000AD8B4C2EF20F0DDEF20F0FE51010AAA
:10418800D8B462EF20F0030AD8B470EF20F0010A27
:10419800D8B47EEF20F0070AD8B48CEF20F0010ADB
:1041A800D8B49AEF20F0030AD8B4A8EF20F0DDEFD6
:1041B80020F016EC56F019C036F01AC037F040EF70
:1041C80022F0A80E276EFA0E286E980E296E000EA1
:1041D8002A6E000E2B6E34EC12F060EF21F0850E83
:1041E800276EFC0E286E980E296E000E2A6E000EA1
:1041F8002B6E34EC12F060EF21F0CD0E276EFA0E24
:10420800286E980E296E000E2A6E000E2B6E34EC66
:1042180012F060EF21F02F0E276EFA0E286E980E1E
:10422800296E000E2A6E000E2B6E34EC12F060EF31
:1042380021F0E20E276EFB0E286E980E296E000EF6
:104248002A6E000E2B6E34EC12F060EF21F0C10ED6
:10425800276EFB0E286E980E296E000E2A6E000E31
:104268002B6E34EC12F060EF21F00101FF510001D8
:10427800FE6FFF6BFF51000AD8B445EF21F060EFE5
:1042880021F0FE51010AD8B4E5EF20F0030AD8B4B2
:10429800F3EF20F0010AD8B401EF21F0070AD8B4EF
:1042A8000FEF21F0010AD8B41DEF21F0030AD8B4AA
:1042B8002BEF21F060EF21F040EF22F0000E0F6E9F
:1042C800010EC4EC5FF0AA0E0F6E000E106EA30E66
:1042D800116E000E126E000E146E060E136EB0EC08
:1042E80058F0FF0E376EDC0E366EBE0E176EFE0EE1
:1042F800186EC1EC5CF0010E0F6E010EC4EC5FF09D
:10430800C30E106E500E0F6E28EC58F09B0E176EF1
:10431800FE0E186EC1EC5CF0010E0F6E020EC4ECBE
:104328005FF0C30E106E500E0F6E28EC58F05E0E44
:10433800176EFE0E186EC1EC5CF0010E0F6E030EC8
:10434800C4EC5FF0C30E106E500E0F6E28EC58F0E0
:10435800DF0E176EFE0E186EC1EC5CF0010E0F6ECC
:10436800040EC4EC5FF0C30E106E500E0F6E28ECF6
:1043780058F0420E176EFE0E186EC1EC5CF0010E7E
:104388000F6E050EC4EC5FF0C30E106E500E0F6E6C
:1043980028EC58F0AD0E176EFE0E186EC1EC5CF0EE
:1043A800010E0F6E060EC4EC5FF0C30E106E500EB9
:1043B8000F6E28EC58F0420E176EFE0E186EC1EC08
:1043C8005CF0010E0F6E070EC4EC5FF0C30E106EAA
:1043D800500E0F6E28EC58F0480E176EFF0E186E30
:1043E800C1EC5CF0010E0F6E080EC4EC5FF0C30E5A
:1043F800106E500E0F6E28EC58F098EC45F04F50A8
:10440800D8B409EF22F00BEF22F01CEF22F0010ED6
:104418000F6E020EC4EC5FF0010E106EF40E0F6EFC
:1044280028EC58F0000E4F6E58EC01F08CEC5BF065
:104438005050D8B422EF22F024EF22F062EF21F09E
:1044480087EC5DF00009D8B42CEF22F02EEF22F0B3
:1044580040EF22F0FF0E376EDC0E366EA30E276E8D
:10446800F60E286E980E296E000E2A6E000E2B6E20
:1044780034EC12F0C8EF1EF04EEC5AF00009D8B434
:1044880048EF22F04AEF22F071EF22F0E70E276E94
:10449800F80E286E980E296E000E2A6E000E2B6EEE
:1044A80034EC12F000017451D8B45DEF22F05FEFE4
:1044B80022F0C9EF22F04FEC49F0030E106EE80E1F
:1044C8000F6E28EC58F0E0EC57F0030E106EE80E73
:1044D8000F6E28EC58F0C9EF22F000017A51D8B4D9
:1044E80078EF22F07AEF22F0BFEF22F0000E7A6F19
:1044F800000E106E640E0F6E28EC58F024EC5DF080
:10450800000E106E640E0F6E28EC58F00001745106
:10451800D8B491EF22F093EF22F0B1EF22F04FECF4
:1045280049F0030E106EE80E0F6E28EC58F0E0EC20
:1045380057F0030E106EE80E0F6E28EC58F0440E7C
:10454800276EF80E286E980E296E000E2A6E000E41
:104558002B6E34EC12F0C9EF22F00C0E276EF80E19
:10456800286E980E296E000E2A6E000E2B6E34EC03
:1045780012F0C9EF22F07451D8B4C5EF22F0C7EF9A
:1045880022F0C9EF22F05FEF22F012004B50D8B4AE
:10459800D0EF22F0D2EF22F0AEEF25F036503710F0
:1045A800D8A4D9EF22F0DBEF22F0AEEF25F000011E
:1045B8007F51D8A4E2EF22F0E4EF22F0AEEF25F02D
:1045C8004A50D8A4EAEF22F0ECEF22F0AEEF25F043
:1045D8007D51D8A4F2EF22F0F4EF22F0AEEF25F0EF
:1045E8004C50D8A4FAEF22F0FCEF22F0AEEF25F001
:1045F800000E326EA4EF25F03250160D760EF3241D
:10460800D96E090EF420DA6EDE04D8A40EEF23F07A
:1046180010EF23F0D4EF23F03250160D780EF32468
:10462800D96E090EF420DA6EDF50D8B41EEF23F0ED
:1046380020EF23F0D4EF23F03250160D730EF3243D
:10464800D96E090EF420DA6EDE04D8A42EEF23F01A
:1046580030EF23F0D4EF23F0030E106EE80E0F6E48
:1046680028EC58F08E8C3250160D730EF324D96E48
:10467800090EF420DA6E020EDF6E3250160D790E36
:10468800F324D96E090EF420DA6EDF50D8B44FEF58
:1046980023F051EF23F067EF23F03250160D790E17
:1046A800F324D96E090EF420DA6E000EDF6EC4EC26
:1046B80055F019C064F01AC065F064C036F065C0E2
:1046C80037F074EF23F03250160D700EF324D96EC4
:1046D800090EF420DA6EDF502E6E2E50366E376AD1
:1046E800000E106E640E0F6E28EC58F03250020D5A
:1046F800490EF324F66EF20EF420F76E0900F5CF9A
:1047080017F00A00F5CF18F03250160D640EF32496
:10471800196E090EF4201A6E4EEC57F0000E106E4A
:10472800640E0F6E28EC58F06CEC59F0000E106E09
:10473800640E0F6E28EC58F0090E3260A6EF23F0D5
:10474800A8EF23F0B0EF23F0300E0001846F325051
:10475800310F856FC6EF23F0080E3264B6EF23F0F1
:10476800B8EF23F0C6EF23F00C0E3260BEEF23F053
:10477800C0EF23F0C6EF23F0310E0001846F3250F2
:10478800270F856F7D0E276EFB0E286E980E296EFB
:10479800000E2A6E020E2B6E34EC12F04EEF27F04C
:1047A8003250160D760EF324D96E090EF420DA6E07
:1047B800DE04D8A4E2EF23F0E4EF23F0C9EF24F0FD
:1047C8003250160D780EF324D96E090EF420DA6EE5
:1047D800DF50D8B4F2EF23F0F4EF23F0C9EF24F060
:1047E8003250160D730EF324D96E090EF420DA6ECA
:1047F800020EDE18D8A403EF24F005EF24F0C9EF69
:1048080024F0030E106EE80E0F6E28EC58F08E9C04
:104818003250160D730EF324D96E090EF420DA6E99
:10482800030EDF6E3250160D710EF324D96E090E89
:10483800F420DA6EDF063250160D710EF324D96EAD
:10484800090EF420DA6EDF50D8A42DEF24F02FEFF4
:1048580024F039EF24F03250160D780EF324D96E77
:10486800090EF420DA6E000EDF6E000E106E640E74
:104878000F6E28EC58F03250020D490EF324F66EF4
:10488800F20EF420F76E0900F5CF17F00A00F5CF05
:1048980018F03250160D640EF324196E090EF42028
:1048A8001A6EFDEC4EF0000E106E640E0F6E28ECC2
:1048B80058F03250160D680EF324D96E090EF42004
:1048C800DA6EDF502E6E2F6A3250160D6F0EF324FB
:1048D800D96E090EF420DA6EDF50306E30502E5E3D
:1048E800000E2F5A3250160D700EF324D96E090E91
:1048F800F420DA6EDF50316E31502E5C366E2F5058
:10490800D8A02F04376E000E106E640E0F6E28ECC0
:1049180058F06CEC59F0000E106E640E0F6E28EC17
:1049280058F0090E32609BEF24F09DEF24F0A5EFBC
:1049380024F0300E0001846F3250310F856FBBEFC9
:1049480024F0080E3264ABEF24F0ADEF24F0BBEF97
:1049580024F00C0E3260B3EF24F0B5EF24F0BBEF77
:1049680024F0310E0001846F3250270F856F5B0EE3
:10497800276EFB0E286E980E296E000E2A6E020E08
:104988002B6E34EC12F04EEF27F03250160D760EE7
:10499800F324D96E090EF420DA6EDE04D8A4D7EF1A
:1049A80024F0D9EF24F0A3EF25F03250160D760E3F
:1049B800F324D96E090EF420DA6E000EDF6E325041
:1049C800160D740EF324D96E090EF420DA6E3250E7
:1049D800160D750EF324E16E090EF420E26EDE501A
:1049E800E618D8A4FAEF24F0FCEF24F008EF25F03D
:1049F8003250160D750EF324D96E090EF420DA6EB6
:104A0800010EDF6E11EF25F03250160D750EF324EE
:104A1800D96E090EF420DA6EDF2A000E4B6E010EF5
:104A280000017E6F3228706F000E106E640E0F6EDC
:104A380028EC58F032509FEC5CF0000E106E640EBB
:104A48000F6E28EC58F03250020D490EF324F66E22
:104A5800F20EF420F76E0900F5CF17F00A00F5CF33
:104A680018F03250160D640EF324196E090EF42056
:104A78001A6E21EC5EF0000E106E640E0F6E28ECBC
:104A880058F03250020D490EF324F66EF20EF4205F
:104A9800F76E0900F5CF17F00A00F5CF18F032507D
:104AA800160D640EF324196E090EF4201A6E04EC28
:104AB8005EF0000E106E640E0F6E28EC58F0325047
:104AC800160D780EF324D96E090EF420DA6EDF5035
:104AD800D8B471EF25F073EF25F04EEF27F0325080
:104AE800160D730EF324D96E090EF420DA6E000E3B
:104AF800DF6E000E106E640E0F6E28EC58F0325008
:104B0800020D490EF324F66EF20EF420F76E09003A
:104B1800F5CF17F00A00F5CF18F03250160D640ED5
:104B2800F324196E090EF4201A6E4EEC57F0000E9D
:104B3800106E640E0F6E28EC58F04EEF27F0322AF4
:104B48000B0E3264AAEF25F0ACEF25F000EF23F04E
:104B58004EEF27F000017D51D8B4B5EF25F0B7EF3F
:104B680025F04EEF27F0000E7D6F000E326E46EFF7
:104B780027F03250160D760EF324D96E090EF42064
:104B8800DA6EDE04D8A4CBEF25F0CDEF25F045EFA3
:104B980027F03250160D770EF324D96E090EF42043
:104BA800DA6EDF50D8A4DBEF25F0DDEF25F09DEFBE
:104BB80026F03250160D760EF324D96E090EF42025
:104BC800DA6E000EDF6E3250160D740EF324D96EB5
:104BD800090EF420DA6E3250160D750EF324E16ECC
:104BE800090EF420E26EDE50E618D8A4FEEF25F098
:104BF80000EF26F00CEF26F03250160D750EF32458
:104C0800D96E090EF420DA6E010EDF6E15EF26F06C
:104C18003250160D750EF324D96E090EF420DA6E93
:104C2800DF2A3250160D730EF324D96E090EF420C4
:104C3800DA6E020EDE18D8A424EF26F026EF26F04E
:104C48004FEF26F08E9C3250160D730EF324D96E5A
:104C5800090EF420DA6E000EDF6E3250020D490E96
:104C6800F324F66EF20EF420F76E0900F5CF17F074
:104C78000A00F5CF18F03250160D640EF324196EA1
:104C8800090EF4201A6E4EEC57F0000E106E640EEA
:104C98000F6E28EC58F0000E4B6E010E00017E6F6F
:104CA8003228706F000E106E640E0F6E28EC58F0EC
:104CB80032509FEC5CF0000E106E640E0F6E28EC04
:104CC80058F03250020D490EF324F66EF20EF4201D
:104CD800F76E0900F5CF17F00A00F5CF18F032503B
:104CE800160D640EF324196E090EF4201A6E21ECC9
:104CF8005EF0000E106E640E0F6E28EC58F0325005
:104D0800020D490EF324F66EF20EF420F76E090038
:104D1800F5CF17F00A00F5CF18F03250160D640ED3
:104D2800F324196E090EF4201A6E04EC5EF09BEF62
:104D380025F03250160D730EF324D96E090EF420A7
:104D4800DA6EDE04D8A4ABEF26F0ADEF26F0D6EF8E
:104D580026F016EC56F019C036F01AC037F032506B
:104D6800160D680EF324D96E090EF420DA6EDF50A2
:104D78002E6E2F6A3250160D6F0EF324D96E090E5F
:104D8800F420DA6EDF50306E30502E5E000E2F5A4F
:104D980036502E24366E37502F20376E6CEC59F073
:104DA8009BEF25F03250160D730EF324D96E090EC1
:104DB800F420DA6E020EDE18D8A4E5EF26F0E7EF4D
:104DC80026F045EF27F08E9C3250160D730EF32413
:104DD800D96E090EF420DA6E000EDF6E3250020D25
:104DE800490EF324F66EF20EF420F76E0900F5CFA3
:104DF80017F00A00F5CF18F03250160D640EF324A0
:104E0800196E090EF4201A6E4EEC57F0000E106E53
:104E1800640E0F6E28EC58F016EC56F019C036F0F8
:104E28001AC037F03250160D680EF324D96E090EE9
:104E3800F420DA6EDF502E6E2F6A3250160D6F0E88
:104E4800F324D96E090EF420DA6EDF50306E30503C
:104E58002E5E000E2F5A3250160D700EF324D96EA6
:104E6800090EF420DA6EDF50316E31502E5E000EDE
:104E78002F5A36502E24366E37502F20376ED2EFE9
:104E880026F0322A0B0E32644CEF27F04EEF27F053
:104E9800BDEF25F01200010E0401F76F6E0EF66FDC
:104EA800010EF96F6D0EF86F000EFB6F000EFA6FB2
:104EB800FF0E376EDC0E366E000E0001826F0B0E91
:104EC800706569EF27F06BEF27F06DEF27F0000EA4
:104ED800706F70C047F0D0EF2AF04750160D770E6C
:104EE800F324D96E090EF420DA6EDF50D8B47FEFC0
:104EF80027F081EF27F0CFEF2AF04750160D760EF6
:104F0800F324D96E090EF420DA6EDE04D8B48FEFDC
:104F180027F091EF27F0CFEF2AF000018251D8A4B3
:104F280098EF27F09AEF27F0AFEF27F0000E106EFA
:104F3800640E0F6E28EC58F071EC55F0000E106EF0
:104F4800640E0F6E28EC58F0010E0001826FFF0E00
:104F5800376EDC0E366E4750160D6E0EF324D96E82
:104F6800090EF420DA6E4250DE5CD8A0BEEF27F0BE
:104F7800C0EF27F0AEEF28F04750160D6D0EF32462
:104F8800D96E090EF420DA6E4150DE5CD8B0CFEF4E
:104F980027F0D1EF27F0E2EF27F04750160D6E0EFD
:104FA800F324D96E090EF420DA6E4250DE18D8B414
:104FB800E0EF27F0E2EF27F0AEEF28F04750160DAC
:104FC8006C0EF324D96E090EF420DA6E4050DE5CC4
:104FD800D8B0F1EF27F0F3EF27F015EF28F047509E
:104FE800160D6D0EF324D96E090EF420DA6E4150B9
:104FF800DE18D8A402EF28F004EF28F015EF28F007
:105008004750160D6E0EF324D96E090EF420DA6E91
:105018004250DE18D8B413EF28F015EF28F0AEEFA1
:1050280028F04750160D6A0EF324D96E090EF420A5
:10503800DA6E3F50DE5CD8B024EF28F026EF28F077
:1050480059EF28F04750160D6C0EF324D96E090E4F
:10505800F420DA6E4050DE18D8A435EF28F037EF88
:1050680028F059EF28F04750160D6D0EF324D96E2D
:10507800090EF420DA6E4150DE18D8A446EF28F065
:1050880048EF28F059EF28F04750160D6E0EF3241C
:10509800D96E090EF420DA6E4250DE18D8B457EFF4
:1050A80028F059EF28F0AEEF28F04750160D6B0E98
:1050B800F324D96E090EF420DA6EDE503E5CD8A0D7
:1050C80068EF28F06AEF28F0B2EF28F04750160D85
:1050D8006A0EF324D96E090EF420DA6E3F50DE18FA
:1050E800D8A479EF28F07BEF28F0B2EF28F04750EA
:1050F800160D6C0EF324D96E090EF420DA6E4050AA
:10510800DE18D8A48AEF28F08CEF28F0B2EF28F048
:105118004750160D6D0EF324D96E090EF420DA6E81
:105128004150DE18D8A49BEF28F09DEF28F0B2EF8D
:1051380028F04750160D6E0EF324D96E090EF42090
:10514800DA6E4250DE18D8A4ACEF28F0AEEF28F0A3
:10515800B2EF28F0010E4B6ED8EF2AF04750160D2B
:10516800740EF324D96E090EF420DA6E4750160D2A
:10517800750EF324E16E090EF420E26EDE50E65C53
:10518800D8B0C9EF28F0CBEF28F0CDEF28F0AEEF7C
:1051980028F0000E4B6E000E0401FC6F000EFD6F30
:1051A800000EFE6F000EFF6F42C0FBF427EF29F0E0
:1051B800D00EFB250F6E106A070E1022000E126E1D
:1051C800640E116E5AEC5BF00F501010D8B4EFEF6C
:1051D80028F0F1EF28F01DEF29F0FBC42DF0030EA5
:1051E8002D16D8A4FAEF28F0FCEF28F01DEF29F0CF
:1051F800D00E0401FB250F6E106A070E1022010E57
:10520800126E900E116E5AEC5BF00F501010D8A46D
:1052180010EF29F012EF29F01DEF29F00401F651E3
:10522800FC27F751FD23000EFE23000EFF2326EF77
:1052380029F00401F851FC27F951FD23000EFE2343
:10524800000EFF23FB2B4750160D6E0EF324D96E6C
:10525800090EF420DA6EDE50FB5DD8A036EF29F097
:1052680038EF29F0DCEF28F04750160D6E0EF324C6
:10527800D96E090EF420DA6EDF50146E4750160D01
:105288006D0EF324D96E090EF420DA6EDF5088EC27
:105298004FF014500401FC271550FD23000EFE2387
:1052A800000EFF234750160D6C0EF324D96E090E1D
:1052B800F420DA6EDF502D6E2D50FC27000EFD23F2
:1052C800FE23FF2342C014F0415088EC4FF01450E5
:1052D8002D6E15502E6E2F6A306A2D500401FC5F1A
:1052E8002E50FD5B2F50FE5B3050FF5B40C02DF011
:1052F8002E6A2F6A306A2D50FC5F2E50FD5B2F50AE
:10530800FE5B3050FF5BFCC40FF0FDC410F0FEC420
:1053180011F0FFC412F0180E136E000E146E000E7A
:10532800156E000E166EF0EC5AF00FC0FCF410C0AB
:10533800FDF411C0FEF412C0FFF44750160D6A0EBA
:10534800F324D96E090EF420DA6E3F50DE5CD8A043
:10535800B0EF29F0B2EF29F03BEF2AF04750160DD5
:105368006A0EF324D96E090EF420DA6EDF502D6E22
:105378003F502D5C2E6E2F6AD8A02F06306A2FBEA4
:1053880030063050316E2E500401FC272F50FD237B
:105398003050FE233150FF23FCC40FF0FDC410F041
:1053A800FEC411F0FFC412F03C0E136E000E146E12
:1053B800000E156E000E166EF0EC5AF00FC0FCF4DD
:1053C80010C0FDF411C0FEF412C0FFF44750160DD2
:1053D8006B0EF324D96E090EF420DA6EDE503E5CB3
:1053E800D8A0F9EF29F0FBEF29F01BEF2AF047507E
:1053F800160D6B0EF324D96E090EF420DA6EDF5009
:105408002D6E2D503E5C2E6E2F6AD8A02F06306A66
:105418002FBE30063050316E2E500401FC5F2F50E5
:10542800FD5B3050FE5B3150FF5B97EF2AF0475031
:10543800160D6B0EF324D96E090EF420DA6EDF50C8
:105448002D6E3E502D5C2E6E2F6AD8A02F06306A26
:105458002FBE30063050316E2E500401FC272F50DD
:10546800FD233050FE233150FF2397EF2AF0475099
:10547800160D6A0EF324D96E090EF420DA6E3F5029
:10548800DE5CD8B04AEF2AF04CEF2AF097EF2AF00A
:105498004750160D6A0EF324D96E090EF420DA6E01
:1054A800DF502D6E2D503F5C2E6E2F6AD8A02F0630
:1054B800306A2FBE30063050316E2E500401FC5F2A
:1054C8002F50FD5B3050FE5B3150FF5BFCC40FF08A
:1054D800FDC410F0FEC411F0FFC412F03C0E136EB0
:1054E800000E146E000E156E000E166EF0EC5AF0DB
:1054F8000FC0FCF410C0FDF411C0FEF412C0FFF49C
:105508004750160D6B0EF324D96E090EF420DA6E8F
:10551800DE503E5CD8A093EF2AF095EF2AF01BEFFF
:105528002AF0FBEF29F00401FC51FD11FE11FF11D7
:10553800D8B4A1EF2AF0A3EF2AF0AEEF2AF0FC05C9
:10554800FD11FE11FF11D8A4ACEF2AF0AEEF2AF03E
:10555800B4EF2AF0000E376E010E366ECFEF2AF048
:1055680036502D6E37502E6E2F6A306A2D50FC5DE6
:105578002E50FD592F50FE593050FF59D8B0C7EF63
:105588002AF0C9EF2AF0CFEF2AF0FCC436F0FDC4A8
:1055980037F0CFEF2AF0472A0B0E4764D6EF2AF0F0
:1055A800D8EF2AF071EF27F04B50D8A4DEEF2AF09D
:1055B800E0EF2AF0F0EF2AF00401FA51D8A4E7EF5F
:1055C8002AF0E9EF2AF0F0EF2AF0010EFA6F000E48
:1055D8000001706F6DEF27F04B50D8B4F6EF2AF04A
:1055E800F8EF2AF058EF2BF04750160D780EF324F9
:1055F800D96E090EF420DA6EDF50D8B406EF2BF01E
:1056080008EF2BF049EF2BF04750160D710EF324DD
:10561800D96E090EF420DA6EDF50D8B416EF2BF0ED
:1056280018EF2BF049EF2BF04750160D6F0EF324AF
:10563800D96E090EF420DA6EDF502D6E2D50366EBD
:10564800376A4750160D730EF324D96E090EF420ED
:10565800DA6E010EDF6E4750020D490EF324F66E26
:10566800F20EF420F76E0900F5CF17F00A00F5CF17
:1056780018F04750160D640EF324196E090EF42025
:105688001A6E4EEC57F09AEF2BF04750160D680E35
:10569800F324D96E090EF420DA6EDF502D6E2D50EA
:1056A800366E376A9AEF2BF0375009E1020E365CF6
:1056B800D8A061EF2BF063EF2BF08CEF2BF0110EDD
:1056C800365C110E3758D8B06CEF2BF06EEF2BF01C
:1056D8008CEF2BF036C00FF037C010F0000E126EB2
:1056E8000F0E116E34EC5FF00FC036F010C037F0BB
:1056F80036C015F037C016F0000E186E110E176E72
:10570800A7EC59F015C036F016C037F09AEF2BF019
:10571800110E365C110E3758D8A095EF2BF097EF85
:105728002BF09AEF2BF00F0E376E366812002B6EA7
:10573800000E276E000E286E000E296E000E2A6ECF
:10574800000E226E710E236E020E246E000E256E60
:10575800000E2C6E140E266E000E0001616F000EF6
:10576800606F000E0F6E090EC4EC5FF0000E0001B2
:10577800616F000E606F010E836F000E4E6E0F0E8C
:10578800736F010E2C6E8CEF2FF0CF90000ECE6E43
:10579800000ECD6E000E6E6FC6EF2EF0C980000EA3
:1057A8004D6E8AA0DAEF2BF0DCEF2BF0E4EF2BF054
:1057B8004D50D8B4E2EF2BF0E4EF2BF0D5EF2BF0FF
:1057C8008AB0E9EF2BF0EBEF2BF0F3EF2BF04D5015
:1057D800D8B4F1EF2BF0F3EF2BF0E4EF2BF0CF8000
:1057E8008AA0F9EF2BF0FBEF2BF003EF2CF04D50D4
:1057F800D8B401EF2CF003EF2CF0F4EF2BF04D5060
:10580800D8A409EF2CF00BEF2CF003EF2FF0010ECA
:105818004D6E0E01388503EF2FF0C980000E4D6ED6
:105828008AA219EF2CF01BEF2CF023EF2CF04D502F
:10583800D8B421EF2CF023EF2CF014EF2CF08AB21F
:1058480028EF2CF02AEF2CF032EF2CF04D50D8B482
:1058580030EF2CF032EF2CF023EF2CF0CF808AA21F
:1058680038EF2CF03AEF2CF042EF2CF04D50D8B432
:1058780040EF2CF042EF2CF033EF2CF04D50D8A431
:1058880048EF2CF04AEF2CF003EF2FF0010E4D6E8D
:105898000E01388503EF2FF0C980000E4D6E8AA4E3
:1058A80058EF2CF05AEF2CF062EF2CF04D50D8B492
:1058B80060EF2CF062EF2CF053EF2CF08AB467EF16
:1058C8002CF069EF2CF071EF2CF04D50D8B46FEF3D
:1058D8002CF071EF2CF062EF2CF0CF808AA477EFD8
:1058E8002CF079EF2CF081EF2CF04D50D8B47FEFED
:1058F8002CF081EF2CF072EF2CF04D50D8A487EFEC
:105908002CF089EF2CF003EF2FF0010E4D6E0E01F5
:10591800388503EF2FF0C980000E4D6E8AA697EFE9
:105928002CF099EF2CF0A1EF2CF04D50D8B49FEF4C
:105938002CF0A1EF2CF092EF2CF08AB6A6EF2CF009
:10594800A8EF2CF0B0EF2CF04D50D8B4AEEF2CF0FF
:10595800B0EF2CF0A1EF2CF0CF808AA6B6EF2CF098
:10596800B8EF2CF0C0EF2CF04D50D8B4BEEF2CF0AF
:10597800C0EF2CF0B1EF2CF04D50D8A4C6EF2CF0AE
:10598800C8EF2CF003EF2FF0010E4D6E0E01388595
:1059980003EF2FF0C980000E4D6E8AA8D6EF2CF0C9
:1059A800D8EF2CF0E0EF2CF04D50D8B4DEEF2CF00F
:1059B800E0EF2CF0D1EF2CF08AB8E5EF2CF0E7EF10
:1059C8002CF0EFEF2CF04D50D8B4EDEF2CF0EFEFBA
:1059D8002CF0E0EF2CF0CF808AA8F5EF2CF0F7EF51
:1059E8002CF0FFEF2CF04D50D8B4FDEF2CF0FFEF6A
:1059F8002CF0F0EF2CF04D50D8A405EF2DF007EF68
:105A08002DF003EF2FF0010E4D6E0E01388503EFD8
:105A18002FF0C980000E4D6E8AAA15EF2DF017EFF2
:105A28002DF01FEF2DF04D50D8B41DEF2DF01FEFC6
:105A38002DF010EF2DF08ABA24EF2DF026EF2DF07F
:105A48002EEF2DF04D50D8B42CEF2DF02EEF2DF079
:105A58001FEF2DF0CF808AAA34EF2DF036EF2DF00E
:105A68003EEF2DF04D50D8B43CEF2DF03EEF2DF029
:105A78002FEF2DF04D50D8A444EF2DF046EF2DF028
:105A880003EF2FF0010E4D6E0E01388503EF2FF056
:105A9800C980000E4D6E8DA854EF2DF056EF2DF0F5
:105AA8005EEF2DF04D50D8B45CEF2DF05EEF2DF089
:105AB8004FEF2DF08DB863EF2DF065EF2DF06DEF02
:105AC8002DF04D50D8B46BEF2DF06DEF2DF05EEF4B
:105AD8002DF0CF808DA873EF2DF075EF2DF07DEFB1
